S00C00006C6162342E73726563B5
S21400000018F09FE518F09FE518F09FE518F09FE5BB
S21400001018F09FE518F09FE518F09FE518F09FE5AB
S214000020400000002036000024360000283600007D
S2140000302C3600001C360000303600003436000037
S214000040260000EA8C609FE5000056E380402DE91C
S214000050016046E21E00000A7C509FE50000A0E317
S2140000600010A0E30C2015E510E015E5084015E5A6
S21400007002005EE1042082000900000A000054E34A
S2140000800700000A0270A0E102C0A0E10C00BEE872
S2140000900C00ACE80C3067E0030054E10C20A0E153
S2140000A0F9FFFF1A04E015E500005EE30230A01138
S2140000B00300000A0300A3E803C062E00C005EE150
S2140000C0FBFFFF1A016046E2010076E3145085E26A
S2140000D0E3FFFF1AB30B00EB0100000048371000E7
S2140000E03C108FE21600A0E3563412EF000050E3F7
S2140000F0080000BA28209FE51CD09FE5080092E57E
S214000100000050E300D0A01110109FE5040092E517
S214000110000050E300008115C9FFFFEAFCFFFF3F27
S214000120903F10009840100000D01FE5C4FFFFEA83
S214000130FCFFFF3F08402DE92C009FE52C309FE593
S214000140033060E0060053E30100008A0840BDE883
S2140001501EFF2FE118309FE5000053E3FAFFFF0A69
S2140001600FE0A0E113FF2FE1F7FFFFEA983F100032
S2140001709B3F10000000000008402DE934009FE57A
S21400018034309FE5033060E04331A0E1A33F83E0D5
S214000190C310B0E10100001A0840BDE81EFF2FE1C1
S2140001A018209FE5000052E3FAFFFF0A0FE0A0E1E7
S2140001B012FF2FE1F7FFFFEA983F1000983F10006C
S2140001C00000000010402DE92C409FE50030D4E5EB
S2140001D0000053E30600001AD5FFFFEB1C309FE536
S2140001E0000053E318009F1500F020130130A0E331
S2140001F00030C4E51040BDE81EFF2FE1983F100018
S21400020000000000D036000008402DE934309FE59D
S214000210000053E330009F1530109F1500F02013A8
S2140002202C009FE5003090E5000053E30300000A31
S21400023020309FE5000053E30FE0A01113FF2F11BD
S2140002400840BDE8CBFFFFEA00000000D036000003
S2140002509C3F1000483710000000000004E02DE529
S21400026001D64DE204D04DE20D00A0E1D41603E322
S214000270001040E30126A0E3310000EB04204DE22D
S2140002800331A0E30000A0E308004CE30410B2E54D
S2140002907110FFE6B010C3E1B210D3E0000053E1E6
S2140002A0F9FFFF1AD40603E3100040E3D00000EB8A
S2140002B00030A0E3203F4FE30120A0E3802083E549
S2140002C00020A0E3202F4FE3903092E5000053E398
S2140002D0FCFFFF1ADC0603E3100040E3C40000EB5B
S2140002E00000A0E304D08DE201D68DE20080BDE8D8
S2140002F00010A0E10000A0E308402DE90020A0E1E6
S2140003000030A0E1D70000EB0840BDE81EFF2FE15B
S21400031008402DE90010A0E30040A0E10E0100EB2C
S21400032018309FE5000093E53C3090E5000053E36D
S2140003300FE0A01113FF2F110400A0E14A0B00EB01
S214000340E4361000030052E3F0012DE90900008AAC
S214000350000052E30500000A0030A0E303C0D1E726
S21400036003C0C0E7013083E2020053E1FAFFFF1A40
S214000370F001BDE81EFF2FE1030010E3022080E03D
S2140003800B00000A01C080E2014081E203300CE26B
S214000390015054E5000053E30410A0E10C30A0E146
S2140003A001504CE5014084E201C08CE2F6FFFF1AE2
S2140003B0000000EA0030A0E103C011E24F00001A7E
S2140003C002C063E03F005CE3240000DA00C091E571
S2140003D000C083E504C091E504C083E508C091E54C
S2140003E008C083E50CC091E50CC083E510C091E51C
S2140003F010C083E514C091E514C083E518C091E5EC
S21400040018C083E51CC091E51CC083E520C091E5BB
S21400041020C083E524C091E524C083E528C091E58B
S21400042028C083E52CC091E52CC083E530C091E55B
S21400043030C083E534C091E534C083E538C091E52B
S21400044038C083E53CC091E5403083E204C003E554
S21400045002C063E03F005CE3401081E2DAFFFFCABF
S2140004600F005CE30C0000DA00C091E500C083E5F5
S21400047004C091E504C083E508C091E508C083E5A3
S2140004800CC091E5103083E204C003E502C063E0CF
S2140004900F005CE3101081E2F2FFFFCA03005CE38A
S2140004A00A0000DA04C083E2044081E202306CE015
S2140004B0045014E5030053E30410A0E10C30A0E15F
S2140004C004500CE5044084E204C08CE2F6FFFFCA48
S2140004D0030052E101308382011081820120828272
S2140004E0A2FFFF9A01C051E5013083E2020053E10A
S2140004F002C043E5011081E2F9FFFF1A9BFFFFEA05
S214000500025063E001406CE0030055E3005094E5C0
S214000510EEFFFFDA04606CE28C71A0E18661A0E178
S21400052004C083E23587A0E10450B4E5158688E16F
S21400053002306CE0030053E304800CE50C30A0E1CD
S214000540041081E204C08CE2F5FFFFCADFFFFFEA79
S21400055030402DE90050A0E124D04DE20100A0E19A
S2140005600140A0E1270000EB7C309FE5003093E5DA
S2140005700020A0E1083093E514208DE56C209FE56F
S214000580BC10D3E118208DE50120A0E31C208DE5EA
S21400059010208DE2020A11E304208DE50220A0E37C
S2140005A008208DE564209305021A8103022AC203FF
S2140005B0010080E2BC10C301642083050C008DE5B9
S2140005C0081095E50500A0E104208DE210408DE5B9
S2140005D0DA0000EB000050E30A00A0030000E0137E
S2140005E024D08DE23040BDE81EFF2FE150371000CA
S2140005F0EC36100008309FE50010A0E1000093E5FF
S214000600D2FFFFEA503710000310C0E3030010E2E9
S214000610000060E2043091E404C080E28CC1A0E1F6
S2140006200020E0E3323C831101C0A0E30CC48CE15F
S2140006300CC88CE10C2043E00320C2E18C2312E0BE
S2140006400430910404008002F9FFFF0AFF0013E360
S21400065001008012FF0C131301008012FF08131311
S214000660010080121EFF2FE1E4C09FE5F0412DE956
S21400067000409CE548C194E500005CE353CF84024B
S21400068004509CE548C184051F0055E310D04DE298
S2140006900060A0E1150000DAB8009FE5000050E316
S2140006A00100001A0000E0E3180000EA190EA0E3BB
S2140006B00C108DE508208DE504308DE500F020E374
S2140006C000C050E20C109DE508209DE504309DE535
S2140006D0F3FFFF0A485194E50000A0E304008CE510
S2140006E000508CE548C184E588018CE58C018CE5DA
S2140006F0000056E304409CE50700001A023084E23E
S214000700014084E203118CE704408CE50000A0E37E
S21400071010D08DE2F041BDE81EFF2FE10100A0E3FE
S2140007201004A0E104818CE0020056E388719CE589
S214000730083188E58C319C05007087E10000830154
S2140007400850A0E1882088E588718CE58C018C052E
S214000750E9FFFFEAE436100000000000F04F2DE944
S21400076068319FE5003093E514D04DE204308DE506
S214000770523F83E208008DE50C308DE50170A0E164
S2140007800180A0E304309DE5486193E5000056E350
S2140007900CB09DE53300000A045096E5014055E292
S2140007A088A086521F50855205518A500700005A6D
S2140007B0290000EA003095E5070053E10500000A2D
S2140007C0014044E2010074E3045045E22200000ABE
S2140007D0000057E3F6FFFF1A043096E505206AE0AE
S2140007E0013043E2022086E0040053E1783012E54F
S2140007F00010A0130440860578100215000053E38D
S214000800EEFFFF0A1824A0E1881196E5010012E128
S214000810049096E51600000A8C1196E5010012E198
S2140008201600001A08009DE5801015E50FE0A0E10F
S21400083013FF2FE1043096E5090053E1D0FFFF1ABD
S21400084000309BE5060053E1CDFFFF1A014044E26D
S214000850010074E3045045E2DCFFFF1A70109FE5C8
S214000860000051E30900001A14D08DE2F04FBDE8F5
S2140008701EFF2FE10FE0A0E113FF2FE1ECFFFFEAE0
S214000880800015E50FE0A0E113FF2FE1E8FFFFEA87
S214000890043096E5000053E3003096E50800001AA1
S2140008A0000053E30600000A0600A0E100308BE5D6
S2140008B000F020E300609BE5000056E3B5FFFF1A5A
S2140008C0E8FFFFEA06B0A0E10360A0E1F9FFFFEA57
S2140008D0E43610000000000008402DE910309FE5C7
S2140008E0000053E30C009F1580FEFF1B0840BDE888
S2140008F01EFF2FE118371000FC08000038402DE9D5
S21400090030509FE530409FE5044065E04441B0E14B
S214000910045185100400000A043035E50FE0A0E11C
S21400092013FF2FE1014054E2FAFFFF1A790B04EBA4
S2140009303840BDE81EFF2FE1303710003437100076
S214000940F04F2DE9083092E5000053E30CD04DE25D
S2140009500270A0E100A0A0E10140A0E11E00000A94
S214000960BC30D1E1080013E31F00000A102091E517
S214000970000052E31C00000A022013E2005097E534
S2140009802900000A0080A0E30860A0E1000056E30A
S2140009900820A0E10A00A0E11F00000A010B56E3B0
S2140009A00630A031013BA0231C1094E524C094E53A
S2140009B00FE0A0E11CFF2FE1000050E3500000DA3A
S2140009C0083097E5033060E0000053E3008088E0DD
S2140009D0066060E0083087E5EBFFFF1A0000A0E342
S2140009E00CD08DE2F04FBDE81EFF2FE10A00A0E11B
S2140009F00410A0E1CC0400EB000050E3BC30D4E1CE
S214000A00DCFFFF0A403083E3BC30C4E10930A0E3DA
S214000A100000E0E300308AE5F0FFFFEA008095E59D
S214000A20046095E5085085E2D7FFFFEA019013E2DF
S214000A303800001A0960A0E1000056E32400000A0E
S214000A40020C13E3088094E50320A0E16200000A8C
S214000A50080056E108C0A0E18900003A122D02E223
S214000A60000052E3A200001A000094E508B0A0E1DE
S214000A700630A0E10680A0E10C20A0E10910A0E16C
S214000A8004308DE500C08DE5EB0200EB00C09DE56F
S214000A90081094E5002094E501B06BE00CC082E0FD
S214000AA008B084E500C084E504309DE5082097E59D
S214000AB0028068E0000058E3039089E0066063E087
S214000AC0088087E5C4FFFF0A000056E3BC30D4E187
S214000AD0DAFFFF1A009095E5046095E5085085E278
S214000AE0D4FFFFEA230300EB003050E29D00001A1B
S214000AF00A00A0E1101094E5640600EB0C30A0E3B9
S214000B0000308AE5BC30D4E1403083E3BC30C4E139
S214000B100000E0E3B1FFFFEA0290A0E102C0A0E11E
S214000B2002B0A0E10280A0E1000058E32500000A20
S214000B3000005CE36400000A000094E5102094E5E1
S214000B40080059E10930A0310830A021020050E128
S214000B50086094E514E094E50200009A0E6086E0D2
S214000B60060053E18A0000CA0E0053E12D0000BAC9
S214000B701C1094E50A00A0E100C08DE50B20A0E162
S214000B800E30A0E124C094E50FE0A0E11CFF2FE1A9
S214000B90006050E200C09DE5D9FFFFDA069059E0FC
S214000BA03000000A083097E5033066E0000053E3A3
S214000BB006B08BE0088066E0083087E586FFFF0A0F
S214000BC0000058E3D9FFFF1A00B095E5048095E5CC
S214000BD000C0A0E3085085E2D2FFFFEA000094E5DB
S214000BE0103094E5030050E10100009A080056E139
S214000BF07500008A143094E5030056E12600003A9A
S214000C000A00A0E11C1094E50920A0E124C094E5A8
S214000C100FE0A0E11CFF2FE1008050E2B8FFFFDAF2
S214000C200830A0E1A0FFFFEA0320A0E10B10A0E13E
S214000C3004308DE500C08DE57F0200EB04309DE5B5
S214000C40081094E5002094E50360A0E1011063E03D
S214000C50032082E0069059E0081084E5002084E531
S214000C6000C09DE5CEFFFF1A0A00A0E10410A0E137
S214000C707B0400EB000050E3A1FFFF1A09C0A0E1CF
S214000C80C7FFFFEA000094E506B0A0E10630A0E149
S214000C900680A0E106C0A0E176FFFFEA0620A0E1FC
S214000CA00910A0E1640200EB082094E5003094E50A
S214000CB0022066E0063083E0003084E5082084E504
S214000CC00680A0E10630A0E177FFFFEA0B00A0E176
S214000CD00A10A0E30820A0E1100200EB000050E399
S214000CE00190801209906B100190880201C0A0E369
S214000CF090FFFFEA101094E500B094E5148094E5A8
S214000D000BB061E0888088E0A88F88E001008BE265
S214000D10C880A0E1060080E0000058E10820A0E1BD
S214000D200080A0310820A031010B13E30A00A0E1E7
S214000D306BFFFF0A0210A0E1310000EB003050E22A
S214000D406DFFFF0A101094E50B20A0E104308DE53E
S214000D507BFDFFEBBC20D4E1122DC2E3802082E3B2
S214000D60BC20C4E104309DE50B0083E008206BE066
S214000D70103084E5148084E5000084E506B0A0E128
S214000D80082084E50630A0E10680A0E106C0A0E1C8
S214000D9038FFFFEA0B10A0E10620A0E100C08DE5B9
S214000DA0250200EB003094E5063083E0003084E551
S214000DB00A00A0E10410A0E1290400EB000050E3C3
S214000DC000C09DE574FFFF0A4DFFFFEA0910A0E191
S214000DD00820A0E104808DE5170200EB002094E5D2
S214000DE0082082E0002084E50A00A0E10410A0E1CB
S214000DF01B0400EB000050E304309DE52AFFFF0AC9
S214000E003FFFFFEAF04F2DE90B5081E2160055E355
S214000E100750C583A53FA0810030A0931050A09333
S214000E20010055E10310A02101108333000051E3B7
S214000E300C30A0130CD04DE20060A0E1003080150D
S214000E400040A0131500001A480200EB7E0F55E381
S214000E501600002AB8769FE5A5E1A0E18E3187E06E
S214000E600C4093E5030054E14B01000A043094E57E
S214000E700330C3E3033084E0040093E5081084E203
S214000E80060091E8010080E3040083E50C2081E57C
S214000E90081082E50600A0E1350200EB084084E277
S214000EA00400A0E10CD08DE2F04FBDE81EFF2FE15C
S214000EB0A5E4B0E1A5E1A0018E10A0016100001A32
S214000EC04C769FE5011187E00C4091E5040051E166
S214000ED00500001A0A0000EA000053E3D70000AA43
S214000EE00C4094E5040051E10500000A042094E556
S214000EF00320C2E3023065E00F0053E3F5FFFFDA9C
S214000F0001E04EE201E08EE204369FE5104097E5F0
S214000F10088083E2080054E1041093051600000AD6
S214000F20042094E50320C2E3021065E00F0051E3BD
S214000F30F70000CA000051E3148083E5108083E5C3
S214000F40460000AA020C52E3D200002A040093E5F1
S214000F50A221A0E14211A0E101C0A0E31C1180E1A2
S214000F60822183E0080092E50C2084E5080084E5F1
S214000F70041083E5084082E50C4080E54E01A0E1C0
S214000F800130A0E31300A0E1010050E13B00008A1D
S214000F90000011E10800001A1003A0E103E0CEE310
S214000FA0000011E104E08EE20300001A8000A0E1D8
S214000FB0000011E104E08EE2FBFFFF0A8EA187E04D
S214000FC00AC0A0E10E40A0E10C309CE503005CE105
S214000FD00500001ADB0000EA000052E3F40000AA55
S214000FE00C3093E503005CE1D600000A041093E59C
S214000FF00310C1E3012065E00F0052E3F5FFFFDABE
S2140010000340A0E10C0093E508C0B4E5051083E0BA
S21400101001E082E3015085E30C008CE508C080E522
S214001020045083E5141087E5101087E50C8081E5F1
S214001030088081E504E081E5022081E70600A0E162
S214001040CB0100EB95FFFFEA04005EE38700008A11
S21400105025E3A0E138E08EE28E10A0E197FFFFEADC
S214001060022084E0043092E5013083E3043082E518
S2140010700600A0E1BE0100EB084084E287FFFFEA1D
S214001080084097E504A094E503A0CAE30A0055E1EA
S2140010900200008A0A3065E00F0053E35D0000CAD4
S2140010A070949FE5083497E500B099E5010073E376
S2140010B00BB085E001BA8B120FB08B12FFBECB13BC
S2140010C010B08B020FB0CB130A2084E00600A0E11C
S2140010D00B10A0E104208DE5030300EB010070E394
S2140010E00080A0E104209DE5E200000A000052E135
S2140010F0BF00008A043099E5080052E103308BE017
S214001100043089E5DF00000A081497E5010071E362
S21400111008206210F8339F05023083100884830588
S21400112004308915073018E2082063120280881000
S214001130013A6312082083120B3088E0012AA003CC
S214001140033AA0E123BA42E00B10A0E10600A0E1BA
S214001150E50200EB010070E300206810043099E51A
S21400116002208B1000B0A003012082130120A003F0
S21400117003308BE0070054E1043089E5088087E5FA
S214001180042088E50D00000A0F005AE3AC00009A20
S21400119004C094E50C204AE20720C2E301C00CE23A
S2140011A0021084E00500A0E30CC082E10F0052E3C9
S2140011B004C084E5040081E5080081E5B800008AE3
S2140011C02C2099E5020053E148239F852C30828528
S2140011D0302099E5084097E5020053E104309495E5
S2140011E0042094852C139F850330C393303081856B
S2140011F00330C283030055E1033065E00100008A36
S2140012000F0053E3030000CA0600A0E1580100EBFC
S2140012100040A0E321FFFFEA052084E0013083E3DD
S214001220015085E3045084E50600A0E1043082E521
S214001230082087E5084084E24D0100EB17FFFFEA2F
S214001240022084E0040092E5081084E20A0091E897
S214001250010080E3040082E50C3081E5081083E598
S2140012600600A0E1420100EB084084E20BFFFFEA23
S21400127014005EE35BE08E928E10A0910FFFFF9A43
S21400128054005EE36100008A25E6A0E16EE08EE28F
S2140012908E10A0E109FFFFEAA234A0E1040053E3A8
S2140012A04F00009A140053E35BA083928A00A0913B
S2140012B00400009A540053E37F00008A22A6A0E1AF
S2140012C06EA08AE28A00A0E1000187E0083090E57F
S2140012D0000053E138C29FE55200000A041093E56F
S2140012E00310C1E3010052E10200002A083093E532
S2140012F0030050E1F8FFFF1A0C2093E5041097E571
S2140013000C2084E5083084E50C4083E5084082E53F
S21400131019FFFFEA052084E0010081E3015085E320
S214001320045084E5142083E5102083E50C8082E5D4
S214001330010182E9011082E70600A0E10C0100EB42
S214001340084084E2D5FEFFEA014084E2030014E38D
S21400135008C08CE21BFFFF1A03001EE308304AE2B7
S2140013606200000A00A09AE503005AE101E04EE29E
S214001370F8FFFF0A043097E58000A0E1030050E183
S2140013803EFFFF8A000050E33CFFFF0A000013E127
S2140013905A00000A04E0A0E107FFFFEA083084E2F2
S2140013A0144094E5040053E102E08E02D5FEFF0AE5
S2140013B0ADFEFFEA011083E0040091E50340A0E1E2
S2140013C00820B4E50C3093E5010080E3040081E5D5
S2140013D00C3082E5082083E50600A0E1E40000EB7F
S2140013E0AEFEFFEA22A3A0E138A08AE28A00A0E1CE
S2140013F0B4FFFFEA070054E13DFFFF0A10319FE506
S214001400084093E5043094E50330C3E378FFFFEA31
S214001410550F5EE30F00008AA5E7A0E177E08EE2B5
S2140014208E10A0E1A5FEFFEA04209CE54AA1A0E1FB
S2140014300110A0E3111A82E10320A0E104108CE55C
S214001440AEFFFFEA0130A0E3043088E50840A0E1E3
S2140014500030A0E366FFFFEABC309FE503005EE1D4
S21400146025E9A0917CE08E928E10A091FC10A083BE
S2140014707EE0A08391FEFFEA084097E5043094E5FD
S2140014800330C3E35AFFFFEA021AB0E11DFFFF1A5A
S214001490082097E50A108BE0011081E3041082E52E
S2140014A046FFFFEA0600A0E1081084E2F70300EB1F
S2140014B060309FE5043093E540FFFFEA550F53E3A5
S2140014C0A2A7A09177A08A928A00A0917DFFFF9A9A
S2140014D044109FE5010053E122A9A0917CA08A92C6
S2140014E08A00A091FC00A0837EA0A08375FFFFEA7F
S2140014F0043097E50030C3E1043087E59DFFFFEA3E
S2140015008000A0E1000013E1044084E2A0FFFF1A7F
S214001510FAFFFFEA803B1000B43F100054050000BD
S214001520030010E370002DE9FF1001E23C00000A02
S214001530000052E301C042E23B00000A0030D0E562
S214001540010053E11F00000A013080E2060000EAB5
S21400155000005CE31D00000A0020D0E5010052E117
S214001560013083E201C04CE21600000A030013E3D8
S2140015700300A0E1F5FFFF1A03005CE31500008AF4
S21400158000005CE301404CE21000000A0030D0E5A9
S214001590010053E10B00000A012080E20030A0E3C6
S2140015A0040000EA00C0D0E501005CE1012082E210
S2140015B0013083E20300000A030054E10200A0E1C8
S2140015C0F7FFFF1A0000A0E37000BDE81EFF2FE142
S2140015D00C00A0E1FBFFFFEA016481E1066886E1FA
S2140015E0003090E548409FE5033026E0044083E065
S2140015F040209FE50340C4E1022004E0000052E3DF
S2140016000050A0E1040080E20300001A04C04CE28F
S21400161003005CE3F1FFFF8AD8FFFFEA0500A0E1C4
S214001620D6FFFFEA02C0A0E1D2FFFFEA0200A0E177
S214001630E4FFFFEAFFFEFEFE80808080010050E1AE
S214001640F0002DE90E00009A02C081E00C0050E187
S2140016500B00002A000052E3023080E0012042E244
S2140016600500000A0C10A0E101C071E5012042E26D
S214001670010072E301C063E5FAFFFF1AF000BDE85F
S2140016801EFF2FE10F0052E30900008A0030A0E1A0
S214001690000052E3F8FFFF0A011041E2022083E057
S2140016A001C0F1E501C0C3E4020053E1FBFFFF1AED
S2140016B0F1FFFFEA003081E1030013E32700001A80
S2140016C001C0A0E10030A0E10240A0E100509CE58E
S2140016D0005083E504509CE5045083E508509CE5E3
S2140016E0085083E5104044E20C509CE50F0054E39C
S2140016F00C5083E510C08CE2103083E2F2FFFF8AC4
S214001700104042E20F40C4E30FC002E2104084E201
S21400171003005CE3043080E0041081E01100009ACE
S21400172004C04CE22C71A0E1076181E001C0A0E199
S214001730046086E20340A0E104509CE406005CE1FD
S214001740045084E4FBFFFF1A01C087E20CC1A0E14D
S214001750032002E20C1081E00C3083E0CBFFFFEAAE
S2140017600030A0E1CBFFFFEA0C20A0E1C7FFFFEAB4
S2140017701EFF2FE11EFF2FE1F04F2DE9004051E242
S2140017800CD04DE20080A0E102B0A0E1D100000A3A
S214001790F6FFFFEB0B508BE2160055E30750C583B0
S2140017A01010A093A56FA0810060A0930150A09197
S2140017B0043014E50510A0810B0055E10160863366
S2140017C0000056E30370C3E30C30A01308A044E205
S2140017D0003088150060A0130F00001A010057E1C2
S2140017E0110000BA0760A0E1062065E00F0052E392
S2140017F0013003E25E00008A063083E104308AE5A9
S21400180006A08AE004309AE5013083E304308AE5D6
S2140018100800A0E1D6FFFFEB0460A0E10600A0E10F
S2140018200CD08DE2F04FBDE81EFF2FE1B4249FE5FB
S21400183008C092E507008AE000005CE1A900000A03
S21400184004E090E50190CEE3099080E0049099E5ED
S214001850010019E306E0A0110E00A0113B00000AEB
S214001860010013E34F00001A089014E50A9069E09F
S214001870043099E5000050E30330C3E36700000A34
S2140018800C0050E107C083E0CE00000A0C608EE03A
S214001890010056E1620000BA082080E20C0092E8DF
S2140018A0082083E50C3082E509A0A0E10C3099E51C
S2140018B00810BAE5042047E2240052E30C3081E524
S2140018C0081083E5FA00008A130052E30A30A0915C
S2140018D01400009A003094E5083089E5043094E559
S2140018E01B0052E30C3089E5084084921030899240
S2140018F00C00009A083094E5103089E50C3094E529
S214001900143089E5240052E3103094051830890518
S214001910142094051C208905183089121040841262
S2140019202030890218408402002094E5002083E5D8
S214001930042094E5042083E5082094E5082083E548
S2140019400A40A0E1043099E509A0A0E1A5FFFFEA5E
S21400195003E0CEE307608EE0010056E1BFFFFFBA6A
S214001960081080E2060091E80C2081E5081082E568
S2140019709CFFFFEA05108AE0010082E3055083E140
S21400198004508AE5040081E5022081E0043092E5F7
S214001990013083E3043082E50800A0E1081081E20C
S2140019A0BA0200EB99FFFFEA0800A0E10B10A0E1E5
S2140019B013FDFFEB006050E21500000A043014E54A
S2140019C00120C3E3081046E202208AE0020051E14B
S2140019D0B300000A042047E2240052E37600008A9F
S2140019E0130052E30630A0910420A0915200008A12
S2140019F0001092E5001083E5041092E5041083E5DC
S214001A00082092E5082083E50800A0E10410A0E184
S214001A109E0200EB0800A0E155FFFFEB7EFFFFEA09
S214001A2007C083E001005CE1DEFFFFBA0960A0E1C9
S214001A300C3099E50810B6E5042047E2240052E38E
S214001A400C3081E5081083E55100008A130052E34C
S214001A500630A0911400009A003094E5083089E51D
S214001A60043094E51B0052E30C3089E5084084926C
S214001A70103089920C00009A083094E5103089E501
S214001A800C3094E5143089E5240052E310309405B8
S214001A9018308905142094051C20890518308912F1
S214001AA0104084122030890218408402002094E5F9
S214001AB0002083E5042094E5042083E5082094E5CF
S214001AC0082083E50640A0E1043099E50C60A0E11B
S214001AD009A0A0E143FFFFEA0210A0E1C8FCFFEB6B
S214001AE00060A0E14CFFFFEA04E09CE503E0CEE3E3
S214001AF007008EE0106085E2060050E10C00A0B101
S214001B0056FFFFBA003065E005A08AE0013083E3A7
S214001B1004308AE5043014E5013003E2035085E121
S214001B20C0319FE5045004E50800A0E108A083E565
S214001B300460A0E10EFFFFEB37FFFFEA003094E5FC
S214001B40003086E5043094E51B0052E3043086E559
S214001B500820849208308692A4FFFF9A083094E505
S214001B60083086E50C3094E50C3086E5240052E318
S214001B701030940510308605142094051030861217
S214001B80142086051020841218308602182084023D
S214001B9096FFFFEA0410A0E10600A0E104C08DE570
S214001BA0A5FEFFEB04C09DE50640A0E1043099E5E4
S214001BB00C60A0E109A0A0E10AFFFFEA0410A0E182
S214001BC09DFEFFEB8FFFFFEA0C308EE0100085E2F3
S214001BD0000053E192FFFFBA0960A0E10C1099E5FE
S214001BE00800B6E5042047E2240052E30C1080E526
S214001BF0080081E53500008A130052E30620A09114
S214001C001400009A001094E5081089E5041094E585
S214001C101B0052E30C1089E510208992084084923C
S214001C200C00009A081094E5101089E50C1094E555
S214001C30141089E5240052E3102094051820890525
S214001C40141094051C10890518208912104084125F
S214001C502020890218408402001094E5001082E5D6
S214001C60041094E5041082E5081094E5081082E557
S214001C70033065E0052089E0013083E3043082E527
S214001C80043099E5013003E2035085E154309FE5C6
S214001C90045089E50800A0E1082083E5B4FEFFEBC8
S214001CA0DDFEFFEA046016E50360C6E3076086E033
S214001CB0CCFEFFEA0410A0E10A00A0E15EFEFFEB06
S214001CC00A40A0E1043099E509A0A0E1C5FEFFEABC
S214001CD00600A0E10410A0E104308DE556FEFFEBFF
S214001CE004309DE5E1FFFFEA803B100038402DE917
S214001CF030409FE50030A0E30050A0E10100A0E1E5
S214001D00003084E55C0500EB010070E30100000A8A
S214001D103840BDE81EFF2FE1003094E5000053E395
S214001D2000308515F9FFFFEAE83F100038402DE93E
S214001D3028319FE5003093E5000053E30050A0E112
S214001D400140A0E10200000A382093E5000052E3BB
S214001D502E00000ABC30D4E1080013E30320A0E103
S214001D600C00000A102094E5000052E31200000A5E
S214001D70011013E21900001A020013E31410940570
S214001D80000052E3081084E51B00000A0000A0E3F0
S214001D903840BDE81EFF2FE1100013E31900000ACB
S214001DA0040012E31C00001A102094E5083083E3B8
S214001DB0000052E3BC30C4E1ECFFFF1A0A1D03E248
S214001DC0020C51E3E9FFFF0A0500A0E10410A0E1C0
S214001DD08E0200EBBC30D4E1102094E5E3FFFFEA6E
S214001DE0143094E50010A0E3003063E2000052E3F4
S214001DF0081084E5183084E5E3FFFF1ABC30D4E110
S214001E00800013E3E0FFFF0A0000E0E3DFFFFFEAE5
S214001E100300A0E1EC0000EBCDFFFFEA301094E5F4
S214001E20000051E30700000A402084E2020051E16E
S214001E300200000A0500A0E1940100EBBC30D4E1EA
S214001E400020A0E3302084E5102094E50010A0E3F5
S214001E502430C3E3041084E5002084E5D2FFFFEAC3
S214001E6050371000F8402DE9007050E20140A0E124
S214001E700200000A383097E5000053E35900000AD4
S214001E80BC20D4E1000052E32300000A080012E35D
S214001E902400000A106094E5000056E31E00000AC5
S214001EA0005094E5030012E314309405055066E0F4
S214001EB00030A013000055E3006084E5083084E598
S214001EC0030000CA140000EA000055E3006086E044
S214001ED0110000DA0530A0E10620A0E10700A0E12D
S214001EE01C1094E524C094E50FE0A0E11CFF2FE150
S214001EF0000050E3055060E0F2FFFFCABC30D4E1BA
S214001F00403083E3BC30C4E10000E0E3030000EAB5
S214001F103C1094E5000051E3070000CA0000A0E36F
S214001F20F840BDE81EFF2FE1041094E5023B82E373
S214001F30000051E3BC30C4E1F4FFFFDA28C094E5AA
S214001F4000005CE3F4FFFF0A0010A0E3016A12E25F
S214001F50005097E5001087E52400000A502094E51D
S214001F60040013E30500000A301094E5043094E5FD
S214001F70000051E3022063E03C3094150220631019
S214001F800700A0E11C1094E50030A0E30FE0A0E1FC
S214001F901CFF2FE1010070E32000000ABC30D4E1F2
S214001FA0102094E5021BC3E3010A13E30030A0E30C
S214001FB0BC10C4E10C0084E82800001A301094E538
S214001FC0000051E3005087E5D3FFFF0A403084E26B
S214001FD0030051E10700A0112C01001B0000A0E344
S214001FE0300084E5CDFFFFEA770000EBA3FFFFEAB1
S214001FF00620A0E10700A0E11C1094E50130A0E354
S2140020000FE0A0E11CFF2FE1010070E30020A0E13B
S2140020101400000ABC30D4E128C094E5CFFFFFEAE4
S21400202000C097E51D005CE3B3FFFF8A58309FE5CC
S214002030133CB0E1B0FFFF5ABC30D4E1102094E569
S214002040021BC3E3010A13E30030A0E3BC10C4E1A3
S2140020500C0084E8D8FFFF0A00005CE3D6FFFF1AF6
S214002060500084E5D4FFFFEA003097E5000053E314
S214002070E7FFFF0A1D0053E31600531300508705C1
S2140020800600A001A5FFFF0A9BFFFFEA04020080EE
S214002090001050E208402DE90300000A20309FE5BA
S2140020A0000093E50840BDE86DFFFFEA14309FE5A9
S2140020B014109FE5000093E5B10100EB0840BDE871
S2140020C01EFF2FE150371000E4361000641E00009B
S2140020D00000A0E31EFF2FE10000A0E31EFF2FE19B
S2140020E008402DE908109FE5830100EB0840BDE895
S2140020F01EFF2FE1902E00000030A0E310402DE9D7
S2140021000040A0E1BC10C0E1BE20C0E1003080E588
S214002110043080E5083080E5643080E5103080E5E6
S214002120143080E5183080E50310A0E15C0080E202
S2140021300820A0E30C0200EB24309FE5203084E565
S21400214020309FE5243084E51C309FE5283084E568
S21400215018309FE51C4084E52C3084E51040BDE82F
S2140021601EFF2FE13C2C0000782C0000D02C000035
S214002170042D000070402DE9816081E0066181E059
S2140021808661A0E10150A0E10C1086E21CFBFFEB8B
S214002190004050E20500000A0C0084E20010A0E3B4
S2140021A0220084E8080084E50620A0E1EE0100EBAA
S2140021B00400A0E17040BDE81EFF2FE104309FE55B
S2140021C0000093E5C5FFFFEAE436100038402DE92D
S2140021D0383090E5000053E30040A0E10100000A1B
S2140021E03840BDE81EFF2FE150E09FE5BBCF80E200
S2140021F00150A0E30320A0E1E03284E50330A0E331
S2140022003CE084E5E43284E5E8C284E5040090E539
S2140022100410A0E3385084E5B6FFFFEB080094E511
S2140022200520A0E10910A0E3B2FFFFEB0C0094E547
S2140022301210A0E30220A0E33840BDE8ADFFFFEA9D
S214002240E0200000EC309FE570402DE9005093E55B
S214002250383095E5000053E30060A0E12800000A4E
S2140022602E5E85E2043095E5013053E2084095E5A0
S2140022700400005A1D0000EA013043E2010073E347
S214002280684084E21900000AFC20D4E1000052E312
S214002290F8FFFF1A0030E0E30050A0E3BE30C4E1D0
S2140022A00130A0E3BC30C4E1645084E5005084E50E
S2140022B0085084E5045084E5105084E5145084E505
S2140022C0185084E55C0084E20510A0E10820A0E335
S2140022D0A50100EB305084E5345084E5445084E595
S2140022E0485084E50400A0E17040BDE81EFF2FE1E1
S2140022F0000095E5000050E30400000A0050A0E14D
S214002300D7FFFFEA0500A0E1AFFFFFEBD3FFFFEA30
S2140023100600A0E10410A0E395FFFFEB000050E3E9
S214002320000085E5F4FFFF1A0C30A0E3003086E5D8
S2140023300040A0E1EAFFFFEAE43610001EFF2FE1AE
S2140023401EFF2FE11EFF2FE11EFF2FE108402DE9A3
S21400235010309FE510109FE5000093E5E60000EBC7
S2140023600840BDE81EFF2FE150371000D0200000C7
S21400237008402DE910309FE510109FE5000093E51A
S214002380DD0000EB0840BDE81EFF2FE150371000CF
S214002390D8200000F8402DE9E4509FE50170A0E148
S2140023A00040A0E1F1FCFFEB083095E5046093E502
S2140023B00360C6E3FE3E86E20F3083E2037067E00A
S2140023C02776A0E1017047E20776A0E1010A57E30D
S2140023D0060000BA0400A0E10010A0E342FEFFEBF6
S2140023E0083095E5063083E0030050E10400000A5B
S2140023F00400A0E1DEFCFFEB0000A0E3F840BDE82F
S2140024001EFF2FE10400A0E1001067E236FEFFEB9E
S214002410010070E30B00000A68309FE5082095E590
S214002420001093E5066067E0016086E3017067E0F0
S2140024300400A0E1046082E5007083E5CCFCFFEBBD
S2140024400100A0E3ECFFFFEA0400A0E10010A0E317
S21400245025FEFFEB083095E5002063E00F0052E311
S214002460E2FFFFDA20109FE5001091E5000061E032
S21400247010109FE5012082E3000081E5042083E53B
S214002480DAFFFFEA803B1000B83F1000883F1000DC
S214002490F8402DE9004051E20060A0E14600000A45
S2140024A0B2FCFFEB04E014E538129FE508C044E2F6
S2140024B00130CEE303208CE0080091E5045092E55D
S2140024C0020050E10350C5E34A00000A01E01EE2A4
S2140024D0045082E500E0A0130900001A084014E545
S2140024E00CC064E008009CE5087081E2070050E13B
S2140024F0043083E00C409C150C40801508008415C1
S21400250001E0A003050082E0040090E5010010E36E
S2140025100900001A00005EE3080092E5053083E03B
S2140025200200001AC0419FE5040050E14700000A7F
S2140025300C2092E50C2080E5080082E5012083E36C
S21400254000005EE304208CE503308CE71800001AD8
S214002550020C53E31A00003AA324A0E1040052E35D
S2140025604200008A23E3A0E138E08EE28E00A0E17C
S214002570000181E0082090E5000052E164119FE52B
S2140025804400000A041092E50310C1E3010053E181
S2140025900200002A082092E5020050E1F8FFFF1A28
S2140025A00C3092E50C308CE508208CE50CC082E5FA
S2140025B008C083E50600A0E16DFCFFEBF840BDE82F
S2140025C01EFF2FE1042091E5A331A0E14301A0E125
S2140025D001E0A0E31E0082E1833181E0082093E55C
S2140025E00C308CE508208CE5040081E508C083E506
S2140025F00CC082E5EEFFFFEA01001EE3033085E033
S2140026000600001A082014E50CC062E00C009CE5E9
S21400261008E09CE50C008EE508E080E5023083E0EB
S214002620C8209FE5000092E5012083E3000053E107
S21400263004208CE508C081E5DDFFFF3AB0309FE559
S2140026400600A0E1001093E551FFFFEBD8FFFFEA7C
S214002650012083E314C081E510C081E50C008CE501
S21400266008008CE504208CE503308CE7D0FFFFEAF9
S214002670140052E35BE082928E00A091BBFFFF9AAB
S214002680540052E30A00008A23E6A0E16EE08EE2E0
S2140026908E00A0E1B5FFFFEA043091E54EE1A0E12F
S2140026A00100A0E3100E83E10230A0E1040081E502
S2140026B0BBFFFFEA550F52E3A3E7A09177E08E92A7
S2140026C08E00A091A9FFFF9A28009FE5000052E126
S2140026D023E9A0917CE08E928E00A091FC00A0835E
S2140026E07EE0A083A1FFFFEA803B1000883B10003D
S2140026F08C3F1000B43F100054050000F0412DE957
S2140027000060A0E10180A0E10BFFFFEB2E6E96E2D9
S2140027101900000A0070A0E3045096E5015055E247
S214002720084096E50D00004AFC30D4E1000053E373
S214002730015045E20600000AFE30D4E1010073E3D2
S2140027400400A0E10200000A0FE0A0E118FF2FE15C
S214002750007087E1010075E3684084E2F1FFFF1A2C
S214002760006096E5000056E3EAFFFF1AF3FEFFEB73
S2140027700700A0E1F041BDE81EFF2FE10670A0E1D2
S214002780F9FFFFEAF8452DE90070A0E10180A0E11D
S214002790E9FEFFEB2E6E97E21A00000A00A0A0E307
S2140027A0045096E5015055E2084096E50E00004AB2
S2140027B0FC30D4E1000053E3015045E20700000A74
S2140027C0FE30D4E1010073E30410A0E10700A0E1AD
S2140027D00200000A0FE0A0E118FF2FE100A08AE146
S2140027E0010075E3684084E2F0FFFF1A006096E59A
S2140027F0000056E3E9FFFF1AD0FEFFEB0A00A0E157
S214002800F845BDE81EFF2FE106A0A0E1F9FFFFEAAC
S214002810F0402DE9BC30D1E1020013E344D04DE294
S2140028200140A0E10050A0E12B00001AFE10D1E10B
S214002830000051E3100000BA04208DE2980100EB7E
S214002840000050E30B0000BA08309DE50F3A03E2A3
S214002850022A53E2007072E20270B7E0020953E304
S2140028602300000ABC30D4E1023B83E3BC30C4E161
S214002870016BA0E3060000EABC30D4E1800013E35D
S214002880023B83E3BC30C4E1016BA0034060A013AD
S2140028900070A0E30500A0E10610A0E158F9FFEBE8
S2140028A0000050E3BC30D4E12300000AB0209FE5CE
S2140028B0803083E3000057E33C2085E5BC30C4E16C
S2140028C0000084E5100084E5146084E51200001A18
S2140028D044D08DE2F040BDE81EFF2FE1433081E298
S2140028E0003081E5103081E50130A0E3143081E549
S2140028F0F6FFFFEA282094E568309FE5030052E1E2
S214002900D7FFFF1ABC30D4E1016BA0E3063083E1A9
S214002910BC30C4E14C6084E5DDFFFFEA0500A0E1C1
S214002920FE10D4E16E0100EB000050E3BC30D41181
S21400293001308313BC30C411E4FFFFEA020C13E33A
S214002940E2FFFF1A023083E3432084E2BC30C4E196
S2140029500130A0E3002084E5102084E5143084E5EF
S214002960DAFFFFEAE0200000D02C0000030052E36C
S21400297004402DE5FF1001E20800008A000052E343
S2140029800400000A0030A0E1002082E00110C3E449
S214002990020053E1FCFFFF1A1000BDE81EFF2FE106
S2140029A0030010E3022080E00700000A01C080E276
S2140029B003300CE2000053E301104CE50C30A0E1BC
S2140029C001C08CE2F9FFFF1A000000EA0030A0E127
S2140029D0024063E001C481E03F0054E30CC88CE091
S2140029E01A0000DA00C083E504C083E508C083E56A
S2140029F00CC083E510C083E514C083E518C083E5EA
S214002A001CC083E520C083E524C083E528C083E599
S214002A102CC083E530C083E534C083E538C083E549
S214002A203CC083E5403083E2024063E03F0054E36D
S214002A30EBFFFFCA050000EA00C083E504C083E59B
S214002A4008C083E50CC083E5103083E2024063E0F3
S214002A500F0054E3F7FFFFCA030054E3060000DA52
S214002A60044083E2023064E0030053E304C004E55C
S214002A700430A0E1044084E2F9FFFFCA030052E1FB
S214002A80C4FFFF9A013083E2012082E2011043E591
S214002A90013083E2020053E1FBFFFF1ABDFFFFEAAD
S214002AA038402DE90140A0E1001091E5000051E317
S214002AB00050A0E1F9FFFF1B0500A0E10410A0E113
S214002AC072FEFFEB3840BDE81EFF2FE1F0309FE5B9
S214002AD0003093E5030050E170402DE90050A0E17E
S214002AE02B00000A4C2090E5000052E31100000A7B
S214002AF00030A0E30360A0E1031192E7000051E379
S214002B000500000A004091E50500A0E15FFEFFEB2E
S214002B10001054E2FAFFFF1A4C2095E5016086E2A9
S214002B20200056E30630A0E1F2FFFF1A0500A0E100
S214002B300210A0E155FEFFEB401095E5000051E3C2
S214002B400500A01151FEFF1B481195E5000051E35A
S214002B500800000A536F85E2060051E10500000AEE
S214002B60004091E50500A0E148FEFFEB040056E1B9
S214002B700410A0E1F9FFFF1A541095E5000051E398
S214002B800500A01141FEFF1B383095E5000053E319
S214002B900100001A7040BDE81EFF2FE10500A0E10D
S214002BA03CC095E50FE0A0E11CFF2FE1E01295E5A3
S214002BB0000051E3F6FFFF0A0500A0E17040BDE803
S214002BC0B6FFFFEA50371000F8402DE9007050E2DB
S214002BD060309F0500709305486197E5000056E356
S214002BE00D00000A045096E5014055E20250855259
S214002BF0055186500500004A043035E5014044E2A0
S214002C000FE0A0E113FF2FE1010074E3F9FFFF1AC4
S214002C10006096E5000056E3F1FFFF1A3C3097E5AA
S214002C20000053E30700A0110FE0A01113FF2F11BF
S214002C30F840BDE81EFF2FE15037100010402DE988
S214002C400140A0E1FE10D1E1C50000EB000050E31A
S214002C50503094A5BC30D4B1003083A0013AC3B341
S214002C60503084A5BC30C4B11040BDE81EFF2FE133
S214002C700000A0E31EFF2FE1F8402DE90140A0E18F
S214002C80BC10D1E1010C11E30070A0E10260A0E1EC
S214002C900350A0E10400000AFE10D4E10020A0E3E7
S214002CA00230A0E39D0000EBBC10D4E1011AC1E3A2
S214002CB0BC10C4E10700A0E1FE10D4E10620A0E1AC
S214002CC00530A0E1130000EBF840BDE81EFF2FE141
S214002CD010402DE90140A0E1FE10D1E18F0000EB8D
S214002CE0BC30D4E1010070E3013AC303013A831318
S214002CF0BC30C401BC30C411500084151040BDE87F
S214002D001EFF2FE108402DE9FE10D1E1120000EB76
S214002D100840BDE81EFF2FE138402DE934409FE50E
S214002D200050A0E10100A0E10210A0E10320A0E114
S214002D300030A0E3003084E5370100EB010070E3CB
S214002D400200001A003094E5000053E300308515B9
S214002D503840BDE81EFF2FE1E83F100038402DE95F
S214002D602C409FE50030A0E30050A0E10100A0E168
S214002D70003084E59E0000EB010070E30200001ABC
S214002D80003094E5000053E3003085153840BDE878
S214002D901EFF2FE1E83F100070402DE9004051E291
S214002DA00050A0E10460A0012B00000A62FDFFEBCA
S214002DB0000055E30200000A383095E5000053E3B2
S214002DC02800000AFC60D4E1000056E32100000A57
S214002DD00500A0E10410A0E121FCFFEB2C3094E5F7
S214002DE0000053E30060A0E10500000A0500A0E132
S214002DF01C1094E50FE0A0E113FF2FE1000050E364
S214002E000060E0B3BC30D4E1800013E31B00001A7E
S214002E10301094E5000051E30500000A403084E2DB
S214002E20030051E10500A01198FDFF1B0030A0E350
S214002E30303084E5441094E5000051E30300000AB6
S214002E400500A0E191FDFFEB0030A0E3443084E5EF
S214002E500030A0E3BC30C4E138FDFFEB0600A0E183
S214002E607040BDE81EFF2FE10500A0E1D6FCFFEB99
S214002E70FC60D4E1000056E3D4FFFF1AF5FFFFEA3A
S214002E800500A0E1101094E580FDFFEBDFFFFFEAF0
S214002E9008309FE50010A0E1000093E5BDFFFFEAC3
S214002EA05037100038402DE930409FE50030A0E351
S214002EB00050A0E10100A0E10210A0E1003084E58E
S214002EC06F0000EB010070E30200001A003094E58A
S214002ED0000053E3003085153840BDE81EFF2FE1A3
S214002EE0E83F100038402DE92C409FE50030A0E375
S214002EF00050A0E10100A0E1003084E5780000EB7E
S214002F00010070E30200001A003094E5000053E36D
S214002F10003085153840BDE81EFF2FE1E83F100061
S214002F2038402DE934409FE50050A0E10100A0E1C3
S214002F300210A0E10320A0E10030A0E3003084E509
S214002F40710000EB010070E30200001A003094E507
S214002F50000053E3003085153840BDE81EFF2FE122
S214002F60E83F100038402DE934409FE50050A0E1CE
S214002F700100A0E10210A0E10320A0E10030A0E3E0
S214002F80003084E58C0000EB010070E30200001ABC
S214002F90003094E5000053E3003085153840BDE866
S214002FA01EFF2FE1E83F100008402DE9A50100EBC9
S214002FB030309FE5000053E3000093150300A001A6
S214002FC024309FE5000053E3001093150310A00182
S214002FD00020A0E3A0F4FFEB10309FE5000053E3D1
S214002FE0CAF4FF1BFEFFFFEA90401000944010005A
S214002FF01003000038402DE90050A0E1E80000EB87
S214003000004050E21600000A013045E2010053E39A
S2140030100800009A0200A0E30410A0E1563412EF64
S214003020000050E30030E003003084050A0100EBA6
S2140030303840BDE81EFF2FE1010055E30730E013DE
S2140030400830A003033094E7002094E5030052E123
S2140030500030E003003084050000A003ECFFFF1AF8
S214003060F2FFFFEA0000E0E3F0FFFFEA04E02DE5F0
S2140030701800A0E304109FE5563412EFFEFFFFEAA7
S2140030802600020038402DE90140A0E1C40000EB14
S214003090005050E21000000A0400A0E10010A0E377
S2140030A03C20A0E330FEFFEB023AA0E3043084E5C8
S2140030B0013BA0E32C3084E50C00A0E30510A0E162
S2140030C0563412EF010070E3100084150000A013C0
S2140030D0E10000EB3840BDE81EFF2FE10000E0E312
S2140030E0FBFFFFEA08402DE9AD0000EB001050E2C0
S2140030F00100A0010200000A0900A0E3563412EF06
S214003100D50000EB0840BDE81EFF2FE170402DE91A
S21400311008D04DE20140A0E10250A0E1A00000EB83
S214003120006050E22200000A010055E31D00000A7C
S214003130020055E31400000A000055E30D00001AD3
S214003140003096E5000054E318008DE8090000BA48
S2140031500A00A0E30D10A0E1563412EF010070E360
S214003160044086150400A011BB0000EB08D08DE2D9
S2140031707040BDE81EFF2FE12E0100EB1630A0E3E5
S214003180003080E50000E0E3F7FFFFEA0C00A0E374
S2140031900610A0E1563412EF010070E300408410E0
S2140031A0E6FFFF1AEFFFFFEA043096E5034084E0EF
S2140031B0E2FFFFEA0000E0E3EBFFFFEA70402DE9E4
S2140031C010D04DE20160A0E10250A0E1740000EBD7
S2140031D0004050E20E00000A003094E548008DE9F9
S2140031E00C508DE50600A0E304108DE2563412EF75
S2140031F0010070E304309415050060100030831061
S21400320004308415940000EB10D08DE27040BDE8C9
S2140032101EFF2FE10000E0E3FAFFFFEA70402DE911
S21400322010D04DE20160A0E10250A0E15C0000EB8E
S214003230004050E20E00000A003094E548008DE998
S2140032400C508DE50500A0E304108DE2563412EF15
S214003250010070E304309415050060100030831000
S214003260043084157C0000EB10D08DE27040BDE881
S2140032701EFF2FE10000E0E3FAFFFFEA08402DE919
S2140032805C309FE55C109FE5002093E5003091E5FB
S214003290000052E3000083E00200000A022060E023
S2140032A0000052E3090000BA03204DE0000052E39C
S2140032B0020000BA00204DE0FF0052E3030000DAEF
S2140032C0000081E50300A0E10840BDE81EFF2FE1F5
S2140032D0D80000EB0C30A0E3003080E50030E0E3DF
S2140032E0F7FFFFEA903F1000943F1000F0402DE9F2
S2140032F0A4509FE514D04DE20030A0E30020E0E3A8
S214003300032085E7083083E2A00053E388409FE56A
S214003310FAFFFF1A84709FE50360A0E30030A0E385
S21400332004708DE50C608DE508308DE50100A0E3A6
S21400333004108DE2563412EF0430A0E3000084E55A
S21400334004708DE50C608DE508308DE50100A0E386
S21400335003108DE0563412EF0830A0E3080084E531
S21400336004708DE50C608DE508308DE50100A0E366
S21400337004108DE2563412EF010070E30830940515
S214003380100084E5103084050130A0E3A03085E508
S21400339014D08DE2F040BDE81EFF2FE1EC3F100098
S2140033A0F036100038402DE944509FE5A03095E5F2
S2140033B0000053E30040A0E1CBFFFF0B130054E3F3
S2140033C00600008A843195E7010073E320009F150C
S2140033D0840180100100000A3840BDE81EFF2FE17E
S2140033E0940000EB0930A0E3003080E50000A0E385
S2140033F0F8FFFFEAEC3F100038402DE954409FE507
S214003400A03094E5000053E30050A0E1B6FFFF0BA8
S2140034100030A0E3832194E7010072E38321A0E15A
S2140034200800000A013083E2140053E3F8FFFF1A95
S214003430800000EB1830A0E3003080E50000A0E339
S2140034403840BDE81EFF2FE108009FE5003085E507
S214003450020080E0F9FFFFEAEC3F1000010070E395
S21400346038402DE90040A0E10200000A0400A0E177
S2140034703840BDE81EFF2FE16E0000EB0010A0E311
S2140034800050A0E11300A0E3563412EF000085E5DB
S214003490F5FFFFEAF0472DE9010CA0E308D04DE266
S2140034A075FFFFEB010070E30070A0E13900000A31
S2140034B00050A0E3013CA0E30050C0E50D10A0E1E1
S2140034C01500A0E300708DE504308DE5563412EF4C
S2140034D040819FE50500A0E10190A0E305A0A0E1E2
S2140034E0A4A088E507C0A0E10740A0E10060A0E333
S2140034F00010D4E5000051E31D00000A000056E36A
S214003500012084E20600001A000050E3A43098155B
S21400351003C18017A43098E5013083E2A43088E523
S2140035200160A0E3200051E32200000A220051E3DC
S214003530270051131A00001A0130D4E5000053E3A7
S2140035403200000A030051E11F00000A022084E254
S214003550010000EA030051E11C00000A000050E3ED
S2140035600130CC140240A0E10130D2E4000053E365
S214003570F7FFFF1A010059E31600000A020059E39C
S2140035802000001A0030A0E30030CCE5A42098E527
S214003590023180E7A80088E508D08DE2F047BDE854
S2140035A01EFF2FE1000050E30240A0010110CC14E2
S2140035B00240A011CDFFFFEA000050E301A0CC14AA
S2140035C00240A0E10060A0E3C8FFFFEA0240A0E1DD
S2140035D0014084E2C5FFFFEA040067E0100080E2D5
S2140035E00F00C0E3010C40E223FFFFEBA40098E5C8
S2140035F0040080E20300C0E30001A0E11EFFFFEB31
S214003600010070E3E3FFFF0A019089E2B3FFFFEADF
S2140036100240A0E1D6FFFFEAEC3F1000FEFFFFEA03
S214003620FEFFFFEAFEFFFFEAFEFFFFEAFEFFFFEAFD
S214003630FEFFFFEAFEFFFFEA04309FE5000093E589
S2140036401EFF2FE15037100070402DE96C509FE5AB
S2140036506C609FE5066065E04661B0E10450451287
S2140036600040A0130500000A0430B5E5014084E2DE
S2140036700FE0A0E113FF2FE1040056E1F9FFFF1A67
S21400368040509FE540609FE5066065E0180004EB4B
S2140036904661B0E1045045120040A0130500000A40
S2140036A00430B5E5014084E20FE0A0E113FF2FE10E
S2140036B0040056E1F9FFFF1A7040BDE81EFF2FE137
S2140036C00C3710000C3710000C371000183710009D
S2080036D000000000F1
S2140036D4810000007E0000007C0000007B000000EB
S2140036E47800000076000000780000007B000000F0
S2140036F4790000007D0000007A00000077000000DA
S2140037047A00000079000000770000007D000000C9
S2140037147D00000079000000730000006E000000C9
S2140037246C0000006B0000006600000060000000F3
S2140037345F000000590000004C0000004900000033
S214003744450000003E0000003E0000003A00000075
S21400375435000000360000003B0000003B0000007F
S2140037643F00000035000000420000004500000055
S21400377446000000430000003E0000003F0000003A
S2140037844400000044000000460000004C00000016
S2140037944500000040000000440000004600000011
S2140037A442000000490000004B00000040000000FA
S2140037B449000000460000004400000047000000E6
S2140037C44A000000490000004400000040000000D9
S2140037D446000000410000004100000048000000D0
S2140037E44D0000004B0000004600000043000000AF
S2140037F4500000004A0000004F0000004C0000008B
S214003804520000004D000000560000005500000065
S214003814530000004E000000500000005800000056
S2140038245900000053000000550000005D00000031
S2140038345100000058000000580000005700000027
S2140038445900000057000000570000005D0000000B
S2140038545D0000005C0000005F0000005C000000EB
S214003864600000005C0000005E0000005A000000DB
S21400387457000000580000005500000055000000E6
S2140038845C000000630000006500000063000000A8
S21400389460000000630000005F0000005E0000009F
S2140038A45C000000590000005E0000005D0000009F
S2140038B45D000000560000005F0000006400000089
S2140038C45C00000060000000660000005D00000070
S2140038D4610000005E00000060000000620000005E
S2140038E45E000000670000005B0000005E00000051
S2140038F46A00000065000000660000006B0000001F
S214003904680000005F0000005E0000006500000024
S21400391463000000600000005F000000610000001B
S2140039246400000064000000610000005F00000006
S21400393464000000620000005E0000005D000000FD
S21400394463000000650000006200000060000000E4
S2140039545C0000005F0000006100000062000000E0
S21400396463000000650000006500000063000000BE
S21400397461000000620000006900000064000000AE
S21400398462000000600000005B00000066000000AB
S2140039945F0000006E00000070000000620000007F
S2140039A461000000620000005B0000005C00000094
S2140039B45700000062000000620000005E00000085
S2140039C46200000065000000630000006300000061
S2140039D462000000650000006B0000007800000034
S2140039E46F000000720000006E0000006C00000013
S2140039F46C0000006C000000690000006B00000012
S214003A0465000000720000007800000079000000E5
S214003A147800000089000000850000007B0000009C
S214003A248700000090000000890000007F0000006E
S214003A348A0000009500000082000000810000005B
S214003A44890000008E0000009E0000009400000024
S214003A54850000008D00000095000000A000000016
S214003A6492000000950000008B000000700000002B
S214003A746C000000620000005A0000004F000000C6
S214003A8456000000560000005A00000055000000D2
S214003A9454000000590000005600000054000000C6
S214003AA459000000590000005700000059000000AB
S214003AB45900000056000000600000005A00000094
S214003AC4590000005F0000005A0000006300000078
S214003AD4570000005C0000005E0000005B00000071
S214003AE4580000005C000000620000006700000050
S214003AF4610000005E0000005F0000005E00000041
S214003B045B0000005E00000064000000650000002A
S214003B14620000005E0000005F0000006500000018
S214003B24630000005E000000600000006900000002
S214003B345F000000600000005D0000006000000000
S214003B44610000005E0000005E0000005A000000F5
S214003B545A0000005D0000005E0000005E000000E9
S214003B645E0000005F0000005F0000005E000000D2
S214003B745C0000005C0000005A0000005A000000D0
S214003B845E0000005F0000006000000065000000AA
S214003B945D0000005E000000580000005B000000AE
S214003BA45900000058000000610000005C0000009E
S214003BB451000000550000005D0000005A0000009F
S214003BC453000000590000005E000000550000008D
S214003BD45000000051000000520000005200000097
S214003BE45100000051000000520000005300000085
S214003BF4480000004C000000520000005200000084
S214003C044B00000049000000520000005D00000068
S214003C146700000058000000550000005C0000002B
S214003C246200000064000000650000006F000000F1
S214003C346B000000660000007200000077000000C1
S214003C446B00000070000000770000006B000000AE
S214003C54680000006C0000006D0000006E000000AC
S214003C64710000006F0000006D0000006F0000008F
S214003C747000000075000000750000006F00000072
S214003C846E0000007400000076000000740000005F
S214003C94770000007B00000079000000750000003B
S214003CA4740000007200000073000000780000003A
S214003CB47B0000007300000070000000730000002A
S214003CC4740000007700000079000000780000000F
S214003CD47A0000007B0000007B0000007A000000F1
S214003CE479000000790000007C0000007F000000DE
S214003CF476000000780000007A0000007B000000D8
S214003D047A00000079000000790000007A000000C4
S214003D147A000000790000007900000079000000B5
S214003D2479000000780000007700000078000000AA
S214003D3479000000750000007700000073000000A2
S214003D4472000000730000006E0000006F000000A8
S214003D546F0000006F0000006E0000006D000000A1
S214003D646F00000071000000700000006D0000008D
S214003D746A0000006C0000006E0000006E00000088
S214003D846F0000007000000071000000700000006A
S214003D946E00000068000000710000007000000063
S214003DA46D000000700000006E000000720000004D
S214003DB4700000006F00000070000000700000003B
S214003DC46E000000720000007E0000008C00000000
S214003DD49B000000AA000000B2000000B40000002F
S214003DE4BB000000C3000000C6000000C7000000BF
S214003DF4C9000000C8000000C6000000C50000009E
S214003E04C7000000CC000000CD000000CC0000007D
S214003E14CA000000BE000000B4000000AD000000B0
S214003E249E000000870000006B00000055000000A4
S214003E344B00000042000000440000004300000065
S214003E444D0000004C0000004F0000004800000039
S214003E54440000005000000057000000540000001A
S214003E644D000000440000003B0000003500000048
S214003E7426000000250000002400000023000000A7
S214003E84220000002200000023000000230000009F
S214003E94230000002300000023000000230000008D
S214003EA42300000024000000250000002600000077
S214003EB4210000002300000024000000230000006E
S214003EC42300000025000000250000002400000058
S214003ED482000000800000007F0000007E000000DA
S214003EE47C00000079000000790000007B000000E0
S214003EF4780000007D0000007B00000079000000D0
S214003F047D0000007B000000780000007D000000BB
S214003F147200000074000000730000006F000000D0
S214003F246D0000006E0000006C00000067000000DA
S214003F345C000000550000004A0000004900000034
S214003F44440000003A000000370000003300000080
S214003F543400000039000000380000003D00000076
S214003F6439000000370000003E0000004200000058
S214003F74460000004400000040000000410000002D
S214003F844500000044000000440000004900000012
S214003F9445000000460000004B0000004A000000F8
S214003FA446000000490000004D00000048000000E4
S214003FB442000000470000004700000041000000E7
S214003FC440000000440000004600000043000000DB
S214003FD44A00000046000000460000004A000000B8
S214003FE44B000000480000004600000046000000A9
S214003FF4500000005300000057000000540000006A
S21400400455000000510000004E000000490000006A
S2140040144F0000005100000055000000580000004A
S214004024580000005600000055000000570000002D
S21400403457000000570000005D000000600000000C
S2140040445A0000005A0000005C00000059000000FE
S214004054650000005B0000005B0000005D000000DF
S214004064630000005A0000005C0000005F000000CF
S2140040745C0000005E0000006500000062000000B6
S214004084580000005C0000006400000062000000AD
S21400409462000000630000005E0000006000000094
S2140040A4600000005E000000610000005E0000008A
S2140040B4600000005C000000610000006400000076
S2140040C45F00000061000000640000005E00000065
S2140040D4650000006500000061000000600000004C
S2140040E45E0000006900000062000000600000003E
S2140040F4630000006100000062000000660000002B
S2140041046500000061000000630000006900000014
S2140041145D00000060000000630000006300000013
S21400412461000000610000006300000066000000FB
S2140041345E00000060000000680000006B000000E5
S21400414465000000620000006300000061000000DB
S21400415462000000640000006500000063000000C8
S2140041646300000062000000600000005E000000C3
S214004174670000005E0000005D0000005D000000B7
S21400418462000000630000005C00000061000000A4
S2140041945D0000005B0000006C0000007100000081
S2140041A46200000060000000620000005A00000088
S2140041B4650000006700000063000000590000006E
S2140041C45A0000006A000000710000006800000049
S2140041D45B0000006E000000760000007A0000001D
S2140041E46F0000006D0000006A000000730000000D
S2140041F4650000007B0000007C0000006A000000F0
S2140042046D000000780000008000000084000000BC
S214004214860000007D000000850000008700000086
S2140042248D000000820000007A0000008900000073
S214004234750000007F0000007E0000008A00000079
S214004244930000008F000000930000008D00000023
S214004254940000009A0000009500000097000000FB
S2140042648C0000008F000000970000009B000000F8
S2140042749D0000008F0000007A000000620000002D
S21400428465000000650000005F0000004B000000B1
S2140042944C000000560000005800000052000000C9
S2140042A45200000053000000510000004F000000C0
S2140042B45F00000057000000570000005600000092
S2140042C45A000000600000005B0000005B00000075
S2140042D45C0000005E0000005D0000005A00000064
S2140042E45A0000005D00000060000000610000004D
S2140042F4640000006000000061000000640000002C
S21400430463000000610000005C0000005300000031
S214004314580000005D0000005E0000005900000028
S214004324590000005E0000005F0000005B00000013
S2140043345A0000005A000000560000005A00000010
S2140043445B0000005A0000005C00000059000000FA
S2140043545B000000610000006300000060000000D5
S2140043645E0000005F000000600000005E000000C9
S2140043745E00000062000000610000005C000000B7
S2140043845B000000590000005B00000061000000B4
S21400439460000000630000005C0000005C00000099
S2140043A45C000000590000005E0000005B00000096
S2140043B45B000000590000005D0000005A00000089
S2140043C45000000055000000590000004F00000097
S2140043D45300000055000000550000005400000083
S2140043E4520000005100000052000000540000007B
S2140043F4520000004C0000004D0000005000000079
S2140044045000000053000000560000005500000055
S2140044145B00000059000000560000005A0000002F
S21400442460000000630000006700000068000000F1
S21400443468000000650000007000000074000000C2
S2140044446C0000006F000000730000006A000000AB
S214004454680000006C0000006D0000006E000000A4
S214004464700000006F0000006D0000006F00000088
S2140044747500000074000000720000007000000068
S2140044847100000073000000740000007400000057
S2140044947700000077000000730000007200000040
S2140044A47700000078000000760000007700000027
S2140044B47900000072000000710000007400000023
S2140044C47500000078000000790000007700000006
S2140044D47D0000007E0000007E0000007C000000DE
S2140044E47A00000078000000790000007A000000DE
S2140044F476000000780000007900000079000000D3
S21400450478000000780000007800000079000000C1
S21400451479000000790000007800000076000000B2
S21400452475000000750000007500000074000000AF
S214004534780000007500000076000000720000009D
S21400454471000000730000006E0000006F000000A1
S2140045546F0000006F0000006E0000006D00000099
S2140045646E000000700000006E0000006B0000008B
S214004574710000006800000069000000720000007E
S21400458472000000690000006B0000007700000065
S2140045946C000000660000006F0000007100000060
S2140045A46F0000006F0000006C0000007000000048
S2140045B46F0000007000000072000000740000002D
S2140045C47100000071000000790000008200000005
S2140045D492000000A6000000B1000000B100000038
S2140045E4B7000000C1000000C4000000C2000000C4
S2140045F4C7000000C9000000C7000000C400000097
S214004604C6000000CC000000CD000000CA00000078
S214004614CC000000C2000000BA000000B300000096
S214004624A7000000950000007B0000006400000066
S21400463452000000490000004A0000004800000044
S2140046444B000000480000004F0000004E00000031
S214004654510000005C000000550000004B00000004
S2140046644B00000040000000300000002E00000058
S214004674290000002700000024000000220000009B
S2140046842100000022000000240000002500000095
S2140046942400000024000000240000002500000080
S2140046A42500000026000000270000002700000068
S2140046B42100000024000000260000002600000060
S2140046C4260000002700000025000000220000004D
S2140046D47C0000007B0000007B0000007B000000E4
S2140046E479000000770000007600000076000000E5
S2140046F4790000007D0000007D0000007C000000C2
S2140047047F0000007C000000790000007C000000B0
S2140047147400000079000000780000006F000000BC
S2140047246A0000006A0000006800000063000000E1
S2140047345F0000005500000047000000460000002F
S21400474442000000390000003B0000003C0000006E
S21400475432000000340000003D000000320000007B
S2140047643D00000030000000400000003B00000058
S2140047744400000043000000410000004200000026
S2140047844500000042000000420000004700000010
S21400479442000000420000003F0000003F0000000E
S2140047A44500000048000000440000003F000000F0
S2140047B446000000480000004700000044000000D7
S2140047C443000000470000004900000049000000C4
S2140047D44C00000049000000490000004B000000A7
S2140047E44900000046000000470000004B0000009F
S2140047F4450000004D00000049000000460000008F
S2140048044700000052000000510000005100000064
S214004814560000005A000000590000005400000032
S214004824520000005500000057000000550000002C
S2140048345A00000052000000590000005C0000000E
S21400484452000000550000005C0000005500000007
S2140048546100000057000000580000005A000000E5
S21400486461000000590000005A0000005C000000CF
S2140048745E000000570000005E00000060000000BC
S214004884570000005D0000006300000057000000B1
S2140048945F0000005F0000005A0000005E00000099
S2140048A46100000060000000620000005D0000007F
S2140048B45E0000005D0000005F0000006100000074
S2140048C46100000062000000630000006200000057
S2140048D46500000069000000600000005F00000042
S2140048E45D00000065000000630000005B0000003F
S2140048F46500000063000000630000006300000021
S214004904630000006300000064000000670000000D
S21400491467000000650000006300000062000000FD
S21400492462000000610000005E0000005A00000003
S2140049345F0000005B0000006000000062000000F2
S21400494458000000580000006000000063000000EB
S21400495462000000640000006400000063000000C1
S2140049646200000062000000600000005E000000BC
S2140049746B000000600000005D0000005E000000A8
S21400498464000000650000005D0000005E0000009A
S2140049945C0000006100000060000000630000008E
S2140049A46B00000067000000640000006A0000005E
S2140049B45A0000006D000000680000005E00000061
S2140049C46E000000770000006C000000630000002A
S2140049D4680000006B000000740000007500000012
S2140049E46000000061000000690000006A0000002A
S2140049F477000000750000006A0000006C000000EC
S214004A04930000008E0000007C0000007900000087
S214004A14900000007D0000008A0000008400000072
S214004A248800000086000000810000008D00000061
S214004A349300000088000000830000008C00000043
S214004A44920000008E0000008E000000920000001D
S214004A5493000000980000008C0000009100000005
S214004A64990000009D0000009700000092000000DE
S214004A74910000008E0000008D0000008C000000F5
S214004A849700000094000000840000006D00000001
S214004A946200000065000000600000005200000094
S214004AA44C000000550000005D0000005A000000A5
S214004AB4570000005A00000057000000580000008D
S214004AC457000000560000005D0000005F00000074
S214004AD45C0000005C0000005C0000005D0000005C
S214004AE45E0000005E0000005B0000005600000050
S214004AF4590000005A0000005F0000006200000039
S214004B04600000006000000062000000600000001A
S214004B145B00000059000000590000005C00000023
S214004B245F000000600000006100000061000000FB
S214004B345F000000600000005B0000005E000000F4
S214004B4460000000600000006400000062000000D6
S214004B5459000000600000006400000061000000CE
S214004B645E000000600000006200000060000000BC
S214004B745A000000600000005F0000005C000000B7
S214004B845C0000005E0000005F00000061000000A2
S214004B945D000000620000005A000000580000009B
S214004BA45B0000005600000056000000580000009D
S214004BB4550000004F000000560000005900000099
S214004BC44F000000510000005400000048000000A0
S214004BD45000000052000000530000005300000084
S214004BE45300000053000000560000005800000068
S214004BF44D00000041000000420000004A00000092
S214004C044D00000053000000560000004C00000059
S214004C144F0000005E0000005E0000005F00000021
S214004C245E000000600000006A00000065000000EE
S214004C3469000000690000006F00000070000000BA
S214004C446D0000006F000000710000006E000000A0
S214004C54690000006D0000006D0000006D0000009B
S214004C64700000006F0000006D000000700000007F
S214004C74720000006D0000006D000000720000006D
S214004C847600000076000000760000007600000043
S214004C947500000076000000740000007400000038
S214004CA47900000079000000770000007900000019
S214004CB47800000073000000730000007600000017
S214004CC477000000780000007800000075000000FF
S214004CD477000000760000007600000075000000F3
S214004CE474000000740000007500000076000000E8
S214004CF478000000790000007A00000079000000C7
S214004D0477000000760000007700000078000000BE
S214004D1473000000750000007500000073000000BA
S214004D2473000000760000007600000075000000A6
S214004D34750000007200000076000000730000009A
S214004D4473000000730000006E0000006E00000098
S214004D546D0000006D0000006C0000006C00000098
S214004D646E0000006F0000006E0000006B00000084
S214004D746B0000006E0000006F0000006C00000076
S214004D846B0000006D0000006D0000006C00000069
S214004D9472000000690000006F000000720000004E
S214004DA46E0000006B0000006A0000006E00000049
S214004DB46C0000006E000000720000007500000029
S214004DC4730000006F00000072000000780000000E
S214004DD4830000009B000000AA000000AB00000057
S214004DE4B2000000BD000000C2000000C2000000C7
S214004DF4C6000000C9000000C8000000C50000008E
S214004E04C6000000CB000000CC000000C900000073
S214004E14CD000000C6000000BF000000B700000080
S214004E24AE000000A20000008D0000007700000025
S214004E345E0000004B000000450000004800000033
S214004E445100000050000000520000004F00000017
S214004E54510000005F000000530000004200000004
S214004E64410000003400000028000000320000006A
S214004E742800000027000000250000002400000091
S214004E84230000002300000023000000230000008D
S214004E942100000021000000210000002100000085
S214004EA42100000021000000210000002100000075
S214004EB4280000002800000026000000240000004F
S214004EC4240000002600000028000000280000003F
S214004ED47F0000007E0000007E0000007E000000D0
S214004EE47E0000007D0000007B0000007A000000C9
S214004EF47C0000007E0000007E0000007E000000B3
S214004F047E0000007C0000007900000079000000AC
S214004F147A0000007E0000007A0000006E000000A8
S214004F2467000000680000006500000060000000E4
S214004F3462000000580000004A000000490000001B
S214004F44450000003C0000003E0000004100000058
S214004F54330000003D000000380000003C00000064
S214004F64360000003C0000003E0000003D0000004B
S214004F7441000000410000003F0000004100000026
S214004F84440000004100000041000000460000000C
S214004F9444000000460000003F0000003F00000000
S214004FA44A0000004C0000004300000041000000DE
S214004FB44B000000410000003E00000046000000D8
S214004FC44B000000480000004500000047000000B9
S214004FD44B00000049000000490000004A000000A1
S214004FE44900000047000000490000004E00000091
S214004FF446000000520000004D0000005100000072
S2140050044D000000570000004F0000004F00000055
S214005014510000005400000054000000510000003D
S214005024530000005B000000610000006200000006
S2140050345C000000560000005A0000005D000000FE
S214005044580000005B000000600000005B000000E9
S2140050545B0000005C000000600000005C000000D4
S2140050646200000060000000610000005B000000B9
S214005074630000005B0000005A0000005D000000B2
S2140050846000000067000000650000005700000094
S2140050945C0000005C000000580000005C0000009B
S2140050A46000000060000000620000005F00000076
S2140050B45F000000610000005E0000005F0000006A
S2140050C4640000006300000061000000640000004B
S2140050D460000000660000005E0000006100000042
S2140050E46000000060000000640000005C00000037
S2140050F46600000067000000650000006100000014
S2140051046000000062000000630000006100000010
S21400511463000000610000005F0000006000000003
S2140051246400000066000000610000005B000000F0
S214005134610000005E0000005F00000065000000E3
S2140051446900000065000000600000005F000000C9
S21400515460000000610000006200000062000000C1
S21400516462000000620000006100000060000000B1
S2140051746600000065000000660000006500000090
S21400518463000000620000005F0000005D00000095
S214005194690000005E0000005F000000640000007C
S2140051A463000000700000007B0000006B0000003D
S2140051B47000000069000000680000006B0000003A
S2140051C4710000007D0000007C0000006A00000002
S2140051D46E00000073000000690000006800000014
S2140051E472000000700000006C0000007A000000EE
S2140051F46B0000007C0000008700000089000000AF
S2140052048D00000075000000720000008B00000096
S214005214860000007F0000008F0000008800000069
S2140052249000000097000000940000008500000035
S21400523492000000840000008A0000008F00000036
S2140052448F0000008C0000008A000000950000001B
S2140052548E000000970000008D000000870000000C
S2140052648C000000960000009400000087000000F8
S2140052748A000000880000008F0000009A000000EA
S214005284A3000000A10000009D0000009C00000098
S2140052948D00000085000000790000006700000013
S2140052A45700000056000000580000004F000000A1
S2140052B456000000570000004C0000005500000097
S2140052C45C000000580000005A0000004E00000079
S2140052D45B0000005A000000590000005B0000005C
S2140052E45D0000005D00000059000000540000004E
S2140052F45D0000005C0000005F0000005E0000002F
S2140053045B0000005C00000061000000620000001A
S214005314640000005900000058000000620000000D
S21400532467000000620000006000000066000000E5
S2140053345F000000600000005C0000005D000000EC
S2140053445F000000600000006400000062000000CF
S21400535464000000650000006600000064000000B1
S214005364610000005D0000005C0000005C000000BE
S21400537462000000640000005F0000005B000000A4
S2140053845F000000610000005C00000058000000A0
S2140053945D000000620000005C0000005A0000008F
S2140053A45F0000005B000000570000005D00000086
S2140053B4580000004F0000005A0000006300000080
S2140053C45B0000005B0000005B0000004D00000076
S2140053D45600000055000000540000005200000073
S2140053E45100000051000000500000005000000072
S2140053F44D00000043000000490000004F0000007C
S2140054044C00000052000000580000004F0000004E
S21400541452000000620000005E000000620000000F
S21400542464000000640000006D00000061000000DD
S2140054346E0000006F0000006F0000006E000000A9
S2140054446F00000070000000710000007300000090
S2140054546B0000006E0000006E0000006E0000008E
S214005464700000006F0000006E0000007000000076
S2140054747300000071000000710000007500000059
S2140054847700000075000000700000006E00000049
S2140054946E000000760000007A0000007A0000002B
S2140054A47900000077000000780000007E0000000D
S2140054B47A00000075000000750000007700000008
S2140054C477000000780000007800000074000000F8
S2140054D47A000000780000007600000075000000E6
S2140054E475000000770000007A0000007B000000D2
S2140054F4790000007A0000007B0000007A000000BB
S21400550478000000760000007600000076000000B8
S21400551471000000750000007500000073000000B4
S214005524740000007700000077000000740000009C
S2140055347200000070000000750000007400000097
S21400554474000000740000006E0000006D0000008F
S2140055546D0000006B0000006A0000006B00000095
S2140055646D0000006F0000006F0000006D0000007A
S2140055746400000072000000730000006700000072
S21400558467000000710000006E0000005E0000006E
S214005594770000006D0000006E000000710000003F
S2140055A46D0000006A0000006C000000710000003E
S2140055B46B0000006B0000006F000000720000002B
S2140055C4710000006E0000006E0000007200000013
S2140055D47B00000090000000A1000000A70000006F
S2140055E4AE000000B6000000BD000000C2000000CF
S2140055F4C5000000C6000000C7000000C800000088
S214005604C9000000CA000000CB000000CC00000067
S214005614CE000000CA000000C4000000BC00000069
S214005624B2000000AB0000009B00000089000000F0
S2140056346B00000051000000440000004A00000017
S2140056445500000055000000540000005100000002
S2140056544D000000550000004B0000003C00000018
S214005664350000002B00000027000000300000007A
S214005674240000002500000026000000260000008C
S2140056842600000024000000220000002100000084
S214005694260000002600000026000000250000006A
S2140056A42400000023000000230000002200000065
S2140056B42500000024000000220000002000000056
S2140056C42000000022000000240000002600000045
S2140056D4810000007F0000007E0000007D000000C6
S2140056E47F000000800000007F0000007D000000B6
S2140056F47D0000007D0000007E0000007E000000AB
S2140057047D0000007C0000007B00000079000000A3
S21400571476000000790000007600000070000000AB
S2140057246E000000700000006C00000065000000C1
S2140057345E000000580000004F000000500000000B
S2140057444A0000003C00000039000000360000005B
S21400575434000000370000003F0000003100000065
S2140057643F00000035000000440000003B0000003D
S21400577442000000410000003F000000400000001E
S2140057844300000041000000410000004700000004
S214005794430000004D0000004B00000047000000DE
S2140057A44D0000004A000000450000004D000000C7
S2140057B44D000000420000003E00000047000000CC
S2140057C44E0000004A0000004700000048000000A9
S2140057D44C00000049000000480000004A00000099
S2140057E44B0000004A0000004B0000004E00000082
S2140057F44F000000550000004F0000005800000055
S2140058044F00000059000000500000005300000044
S2140058144E00000051000000540000005800000034
S214005824590000005A0000005D0000005F00000000
S214005834520000005400000055000000570000000D
S2140058445B0000005A0000005700000057000000EC
S2140058545A0000005D000000630000005D000000C8
S214005864600000005E000000600000005D000000B4
S2140058745F00000066000000620000005D0000009B
S21400588461000000610000005E000000600000008F
S2140058945C0000005E0000005B0000005F0000008B
S2140058A46000000060000000650000006300000067
S2140058B4670000006800000062000000610000004D
S2140058C467000000630000005E0000006300000044
